:020000040000fa
:080000000002040000000000f2
:020000040000fa
:0400080006030000eb
:020000040000fa
:04000c0006030000e7
:020000040000fa
:0400100006030000e3
:020000040000fa
:0400140006030000df
:020000040000fa
:0400180006030000db
:020000040000fa
:04001c0006030000d7
:020000040000fa
:0400200006030000d3
:020000040000fa
:0400240006030000cf
:020000040000fa
:0400280006030000cb
:020000040000fa
:04002c0006030000c7
:020000040000fa
:0400300006030000c3
:020000040000fa
:04003400ec020000da
:020000040000fa
:0400380006030000bb
:020000040000fa
:04003c0006030000b7
:020000040000fa
:0400400006030000b3
:020000040000fa
:0400440006030000af
:020000040000fa
:0400480006030000ab
:020000040000fa
:04004c0006030000a7
:020000040000fa
:0400500006030000a3
:020000040000fa
:04005400060300009f
:020000040000fa
:04005800060300009b
:020000040000fa
:04005c000603000097
:020000040000fa
:040060000603000093
:020000040000fa
:04006400060300008f
:020000040000fa
:04006800060300008b
:020000040000fa
:04006c000603000087
:020000040000fa
:040070000603000083
:020000040000fa
:04007400060300007f
:020000040000fa
:04007800060300007b
:020000040000fa
:04007c000603000077
:020000040000fa
:040080000603000073
:020000040000fa
:04008400060300006f
:020000040000fa
:04008800060300006b
:020000040000fa
:04008c000603000067
:020000040000fa
:040090000603000063
:020000040000fa
:04009400060300005f
:020000040000fa
:04009800060300005b
:020000040000fa
:04009c000603000057
:020000040000fa
:0400a0000603000053
:020000040000fa
:0400a400060300004f
:020000040000fa
:0400a800060300004b
:020000040000fa
:0400ac000603000047
:020000040000fa
:0400b0000603000043
:020000040000fa
:0400b400060300003f
:020000040000fa
:0400b800060300003b
:020000040000fa
:0400bc000603000037
:020000040000fa
:0400c0000603000033
:020000040000fa
:0400c400060300002f
:020000040000fa
:0400c800060300002b
:020000040000fa
:0400cc000603000027
:020000040000fa
:0400d0000603000023
:020000040000fa
:0400d400060300001f
:020000040000fa
:0400d800060300001b
:020000040000fa
:0400dc000603000017
:020000040000fa
:0400e0000603000013
:020000040000fa
:0400e400060300000f
:020000040000fa
:0400e800060300000b
:020000040000fa
:0400ec000603000007
:020000040000fa
:0400f0000603000003
:020000040000fa
:0400f40006030000ff
:020000040000fa
:0400f80006030000fb
:020000040000fa
:0400fc0006030000f7
:020000040000fa
:0401000006030000f2
:020000040000fa
:0401040006030000ee
:020000040000fa
:0401080006030000ea
:020000040000fa
:04010c0006030000e6
:020000040000fa
:0401100006030000e2
:020000040000fa
:0401140006030000de
:020000040000fa
:0401180006030000da
:020000040000fa
:04011c0006030000d6
:020000040000fa
:0401200006030000d2
:020000040000fa
:0401240006030000ce
:020000040000fa
:0401280006030000ca
:020000040000fa
:04012c0006030000c6
:020000040000fa
:0401300006030000c2
:020000040000fa
:0401340006030000be
:020000040000fa
:0401380006030000ba
:020000040000fa
:04013c0006030000b6
:020000040000fa
:0401400006030000b2
:020000040000fa
:0401440006030000ae
:020000040000fa
:0401480006030000aa
:020000040000fa
:04014c0006030000a6
:020000040000fa
:0401500006030000a2
:020000040000fa
:04015400060300009e
:020000040000fa
:04015800060300009a
:020000040000fa
:04015c000603000096
:020000040000fa
:040160000603000092
:020000040000fa
:04016400060300008e
:020000040000fa
:04016800060300008a
:020000040000fa
:04016c000603000086
:020000040000fa
:040170000603000082
:020000040000fa
:04017400060300007e
:020000040000fa
:04017800060300007a
:020000040000fa
:04017c000603000076
:020000040000fa
:04018000c8020000b1
:020000040000fa
:04018400060300006e
:020000040000fa
:04018800060300006a
:020000040000fa
:04018c000603000066
:020000040000fa
:040190000603000062
:020000040000fa
:04019400060300005e
:020000040000fa
:04019800060300005a
:020000040000fa
:04019c000603000056
:020000040000fa
:0402080006030000e9
:020000040000fa
:04020c0006030000e5
:020000040000fa
:0402100006030000e1
:020000040000fa
:0402140006030000dd
:020000040000fa
:0402180006030000d9
:020000040000fa
:04021c0006030000d5
:020000040000fa
:0402200006030000d1
:020000040000fa
:0402240006030000cd
:020000040000fa
:0402280006030000c9
:020000040000fa
:04022c0006030000c5
:020000040000fa
:0402300006030000c1
:020000040000fa
:04023400ec020000d8
:020000040000fa
:0402380006030000b9
:020000040000fa
:04023c0006030000b5
:020000040000fa
:0402400006030000b1
:020000040000fa
:0402440006030000ad
:020000040000fa
:0402480006030000a9
:020000040000fa
:04024c0006030000a5
:020000040000fa
:0402500006030000a1
:020000040000fa
:04025400060300009d
:020000040000fa
:040258000603000099
:020000040000fa
:04025c000603000095
:020000040000fa
:040260000603000091
:020000040000fa
:04026400060300008d
:020000040000fa
:040268000603000089
:020000040000fa
:04026c000603000085
:020000040000fa
:040270000603000081
:020000040000fa
:04027400060300007d
:020000040000fa
:040278000603000079
:020000040000fa
:04027c000603000075
:020000040000fa
:040280000603000071
:020000040000fa
:04028400060300006d
:020000040000fa
:040288000603000069
:020000040000fa
:04028c000603000065
:020000040000fa
:040290000603000061
:020000040000fa
:04029400060300005d
:020000040000fa
:040298000603000059
:020000040000fa
:04029c000603000055
:020000040000fa
:0402a0000603000051
:020000040000fa
:0402a400060300004d
:020000040000fa
:0402a8000603000049
:020000040000fa
:0402ac000603000045
:020000040000fa
:0402b0000603000041
:020000040000fa
:0402b400060300003d
:020000040000fa
:0402b8000603000039
:020000040000fa
:0402bc000603000035
:020000040000fa
:0402c0000603000031
:020000040000fa
:0402c400060300002d
:020000040000fa
:0402c8000603000029
:020000040000fa
:0402cc000603000025
:020000040000fa
:0402d0000603000021
:020000040000fa
:0402d400060300001d
:020000040000fa
:0402d8000603000019
:020000040000fa
:0402dc000603000015
:020000040000fa
:0402e0000603000011
:020000040000fa
:0402e400060300000d
:020000040000fa
:0402e8000603000009
:020000040000fa
:0402ec000603000005
:020000040000fa
:0402f0000603000001
:020000040000fa
:0402f40006030000fd
:020000040000fa
:0402f80006030000f9
:020000040000fa
:0402fc0006030000f5
:020000040000fa
:0403000006030000f0
:020000040000fa
:0403040006030000ec
:020000040000fa
:0403080006030000e8
:020000040000fa
:04030c0006030000e4
:020000040000fa
:0403100006030000e0
:020000040000fa
:0403140006030000dc
:020000040000fa
:0403180006030000d8
:020000040000fa
:04031c0006030000d4
:020000040000fa
:0403200006030000d0
:020000040000fa
:0403240006030000cc
:020000040000fa
:0403280006030000c8
:020000040000fa
:04032c0006030000c4
:020000040000fa
:0403300006030000c0
:020000040000fa
:0403340006030000bc
:020000040000fa
:0403380006030000b8
:020000040000fa
:04033c0006030000b4
:020000040000fa
:0403400006030000b0
:020000040000fa
:0403440006030000ac
:020000040000fa
:0403480006030000a8
:020000040000fa
:04034c0006030000a4
:020000040000fa
:0403500006030000a0
:020000040000fa
:04035400060300009c
:020000040000fa
:040358000603000098
:020000040000fa
:04035c000603000094
:020000040000fa
:040360000603000090
:020000040000fa
:04036400060300008c
:020000040000fa
:040368000603000088
:020000040000fa
:04036c000603000084
:020000040000fa
:040370000603000080
:020000040000fa
:04037400060300007c
:020000040000fa
:040378000603000078
:020000040000fa
:04037c000603000074
:020000040000fa
:04038000c8020000af
:020000040000fa
:04038400060300006c
:020000040000fa
:040388000603000068
:020000040000fa
:04038c000603000064
:020000040000fa
:040390000603000060
:020000040000fa
:04039400060300005c
:020000040000fa
:040398000603000058
:020000040000fa
:04039c000603000054
:020000040000fa
:10040000efa420000e7f24000e01880000000000f1
:10041000000020000000e000020032000001200087
:1004200020028800140007007a0007000000e000a6
:1004300003003a00c0102300010020000200370032
:100440000000200001002000810f70000100320038
:1004500014000700000020000000e000020032004d
:100460000000020000000000e6280200000000007a
:100470000040da000000fe004440a900400f2000c8
:100480000000e0000300320000002000a00188000e
:100490004440a800000006008a1f78008b1f7800e7
:1004a0000000060091018800800478000000eb0045
:1004b0001a003700e284440032a0b4009905ba0063
:1004c000e284440032a0b4009906ba00e2844400f9
:1004d00032a0b4000006eb00476fde00fd07b2005b
:1004e000636ce10003003a00ebff07000000eb0043
:1004f0000a003700606ce10004003a00005deb0088
:100500008b05e900fdff3e00040037006168e10053
:10051000010032000086eb000b00070019c7ba008b
:100520001905ba000e04e00003003a000a00e000da
:10053000e0ff3a0000000600fe07b2009e018800be
:100540008a047800f5ff3700395dba008b05e900b1
:100550000c003200295dba008b05e900080032006a
:100560000c00e00003003a00e284440032a0b40032
:10057000f5ff370019ddba008b05e900faff3a00f4
:100580008904e800e184440032a0b40000000600c1
:100590003600f800809fbe00829fbe00849fbe0090
:1005a000869fbe003400f80000002000a0018800f3
:1005b0000000fa008a0907000080fa003400f90000
:1005c0004f03be004f02be004f01be004f00be00f1
:1005d0003600f90000400600801f78003400f80063
:1005e00000002000a00188000000fa008041800087
:1005f0000000e800804188008460a9000080fa00c3
:100600003400f9004f007800004006000040da0096
:100610000000fe00000005001400fa00889fbe00e4
:100620008a9fbe008c9fbe000004be000205be0073
:10063000680047000a90be000890be00460107000f
:100640000070a7000bf0a100304320009e02900034
:1006500080825200b0fe2f000028e10011003d0012
:10066000b0fc2f000028e100150034001e099000a6
:100670008e0890007e0090000501b0000201d100bc
:100680008180d3000080d3008502e800fbff3a00a0
:100690000b00e0006b013b0060001000e0801800e0
:1006a00068013700f0ff2f00f1ff27000b00e0008a
:1006b00064013b00010028000000200061013700b8
:1006c0006000b8005f0137004f89de0082017800ca
:1006d000610137008c9fbe008a9fbe00889fbe00cc
:1006e000ca0007000b056d008a0578000c40e10088
:1006f00008003a000900e00082003a000af0a10078
:100700000c047800f3012000f2ff2f006110b90003
:100710007c0037000c48e10004003a008700070025
:100720000900e00077003a00f4ff37000800e0001d
:10073000740032000900e00002003a007f00070068
:1007400070003700ed3f20008d8454000904440000
:100750008a1f7800881f7800871f7800861f78001e
:10076000851f7800841f7800cb19dd00c515de00d9
:100770008b8571004b11dd00450dde000a0571000f
:10078000cb08dd00c504de00898470004b04dd0069
:100790000440b8000546b8008c80400060814e00df
:1007a000044eb8008c8040000d0149008001eb0030
:1007b0000318ad000456b8000c0141008d814900ba
:1007c0000002eb000420ad000646b8000c01410019
:1007d0008d81490060024a00054eb8000c014100bd
:1007e0008d81490060024a000556b8008c814100a5
:1007f0000d024a008002eb000528ad000746b80054
:100800008c8141000d024a00e0824a00064eb80089
:100810008c8141000d024a00e0824a004f067800b8
:100820000c5eb8008c8141000d024a00e0824a0053
:100830000656b8000c0242008d824a000003eb000d
:100840000630ad00074eb8000c0242008d824a000f
:1008500060034b004f0678000c5eb8000c024200ab
:100860008d824a0060034b000756b8008c8242001c
:100870000d034b008003eb000738ad004f067800f6
:100880000c5eb8008c8242000d034b00e0834b00ed
:100890004f0678000c5eb8000c0343008d834b00bc
:1008a0004f0478004f0578000748a3000a003a007b
:1008b0000000400081804800020149008381490016
:1008c00004024a0085824a0006034b0087834b00de
:1008d0000804e900f4ff3700030678008080700008
:1008e0008280700001003200610676008701780086
:1008f00006017800850078000400780088047800fc
:10090000780037008d0037008c06460002003a0060
:100910000000a6000000060060004800e0804800db
:1009200060014900e08149000350a6000000060074
:100930008301d1000804e800000006000002fd0069
:100940008102fd000203fd008303fd008804fd0019
:100950008a05fd00000006007048e1001a00390019
:100960007d0320000d48e1000a0039008105700078
:10097000830671008c8575008d8575000006eb007f
:100980000cd8e700610676006000b8006011b8007e
:10099000000006007048e1000b0039008c0578006b
:1009a00000067800010078008200780003017800da
:1009b0008001eb0003d8e70061067600f084540064
:1009c000f4ff3a00000006006160e1000c48ad0051
:1009d000f08514008b06dd000966de000d0676004a
:1009e0008b0edd000900de000d0070008b16dd00af
:1009f0008908de008d8070008b1edd000911de008d
:100a00000d0171008919de00000006000d002800ac
:100a1000fc7f20000d856100441cde00ef81610039
:100a20000c046400010032000340a0008d856300c7
:100a3000c43cde00ef8363008c846400010032005c
:100a40000740a0000c40e10006003a00ef8661007c
:100a500082867600818676008086760001003200ec
:100a6000180037000c48e10007003a00ef866300e9
:100a700086867600858676008486760002003200bf
:100a8000aeff07000f0037000348a30005003a003f
:100a9000810670008286760083867600010032002f
:100aa0000804e8000748a30005003a008506720024
:100ab0008686760087867600010032008904e80089
:100ac00000000600cf047800cf0578001b00370037
:100ad0000002780081027800020378008303780026
:100ae000880478000cf0a70087ff0700fd7f200036
:100af0000d40e100040035000d0478006000b800ee
:100b00006011b8000d0037000800e0000b003c0049
:100b100004007800850078000601780087017800dd
:100b2000e18414008cff07000cf0a70076ff07009b
:100b30000004eb000340a7000804e8004444dd0083
:100b40006fc56100880175004f04be004f05be00ef
:100b50004f06be0000000600800078005002be0074
:100b60005003be004439de00f700b200f37f2000de
:100b700003016100090032000218e10016003a008a
:100b800085017200830173008381730000082000d7
:100b900015003a0040002000130037008501720064
:100ba000830173008381730005003a0004a8be002e
:100bb00006a8be00100020000b0037000201e9006b
:100bc0000402420085824a0006034b0087834b00e3
:100bd0000748a300f9ff32000740a00004a8be00a8
:100be00006a8be0020002000800098009200980017
:100bf00000000600680447000294be000094be0096
:100c0000fc0447008694be008494be00090078006e
:100c1000d1ff070008007800cfff07009900780097
:100c2000814f70000b003b000800be007100070000
:100c30004f00b10003003700f3ff2700f2ff2f0041
:100c40006110b9004f06be004f05be004f04be0044
:100c50000080fa0000000600881f78000304780076
:100c60000300e00007003d0060001000e080180075
:100c700060011900e081190002003b0001f02d0025
:100c8000030037000400070008f0a70003f0a000ed
:100c90004f04780000000600889fbe0000827000ac
:100ca00004027100048271002400320036432000e7
:100cb000c50020008383cf000a0039000541b10040
:100cc0008283cf00070039000541b1008183cf0046
:100cd000040039000541b1008083cf0001003900d4
:100ce0000541b10085c353006022b80012003200f4
:100cf0000a003b0084827200610260008301d1001f
:100d00000281d3008180d3000080d3000603e80075
:100d10008743e800f7ff3a00070037000000400073
:100d20008180480002014900838149000603e900ef
:100d30008743e900f9ff3a00020007004f04be00b4
:100d4000000006001800200057002000080453008f
:100d50000d003d000600200097fc2f000740e10039
:100d60001e00340084827200610260008301d100a1
:100d70000281d3008180d3000080d3000804e80002
:100d8000f8ff3a0047002000610460000504740089
:100d9000040464000d00320061004000e08048005f
:100da00060014900e081490003b8a5000700320056
:100db0000603e8006538e10004003a008301d10031
:100dc0000281d3008180d3000080d300f87f20000f
:100dd0000830e10003003500080378006000b80027
:100de0006011b8004433dd00f300b20083017300ea
:100df00000000600e48240001078a30007003200e3
:100e0000640240001178a3003400be001401be004b
:100e1000040032000330a700000006003500be00c9
:100e20001501be000330a000000006000000fa001b
:100e300068815700cfb89700650207000080fa006c
:100e40000000060089000700e1000700920107008a
:100e5000ba01070013010700b5020700600237005e
:100e60008001780002003700b15978000201e900e2
:100e70000200e000fcff3a0000000600889fbe0070
:100e80008a9fbe00800478000200e0005b00320010
:100e900001407800814c780082814400f1f99f0084
:100ea000e20f51005500360091449800a14498008b
:100eb000e1f99f00d1f99f00e60f51004f00360085
:100ec000b1449800c1f99f00e80f51004b00360073
:100ed0000905ea00630565000a8444000a0551001b
:100ee000c1ff2f00010565000080fb008000eb00c2
:100ef00012102000131020003d050700008cbe00da
:100f00000a01440060b99f0071b99f00e80f5500c5
:100f10003a003600200498003104980040049800fc
:100f20005104980020b99f0031b99f0040b99f003b
:100f300051b99f00f80f550030003600600498004a
:100f400071049800000c9800110c9800200c980077
:100f5000310c9800400c9800510c980020b19f0073
:100f600031b19f0040b19f0051b19f0060b19f001f
:100f700071b19f0000b99f0011b99f006401640026
:100f80007801410002044400020555006011b800d8
:100f90000203be000002be000403be006022b800cf
:100fa000000072008180720002017300838173006f
:100fb00010003700009cbe000294be004004980060
:100fc000510498006204980073049800000c980083
:100fd000110c9800220c9800330c9800400c9800db
:100fe000510c9800620c9800730c98000a02b10032
:100ff0000802b000ff0f5500eeff3e000900780028
:101000004f05be004f04be000000060080007800bf
:10101000040037003104e00002003a0000005100f3
:1010200000000600010178000108a300f9ff3a0062
:101030008101780031017800f4ef2f0002024200b4
:101040000281ea0002016200040828000401610034
:10105000f7ff320083007800010178003104e000de
:10106000fdff3a000000510000000600ec87470039
:10107000889fbe008a9fbe008c9fbe008e1f780096
:1010800000067800010478001807900028059000f9
:1010900098067800cdb79f00b80590003202be00d8
:1010a0002203be000400be000601be004f18de0091
:1010b0006011b8008000eb00d0b79f00e1b79f003f
:1010c000f2b79f0083bf9f00800478000900e00012
:1010d000060032006000b8006011b8000402500041
:1010e0008582580006035900878359000e00e000ee
:1010f000020035000d10a100cdb79f000900e000ef
:1011000005003a004fb097000028a30002003a0003
:101110000038a300020032008a00e9000100370015
:101120008a007800f8815700a200200008007800ab
:10113000860007000900e00003003a00cfb09700e6
:101140000128a300080032000000e90000814500ea
:10115000b1c2b3000900e00001003200d1c2b30007
:1011600001497800050037000138a3000300320070
:101170000000e90001c2b3008175780048019000c9
:101180000201e90000015100808045004fb2970044
:101190008a0178000c007800300207009c00900063
:1011a0000188a3000400320098009000810f5000d5
:1011b00001003d00010078004f0778004f06be0097
:1011c0004f05be004f04be00cf00b1000000060076
:1011d0000200fa00889fbe008a9fbe00800578004a
:1011e00001047800020078001801900028059000a2
:1011f00098007800b1bf9f00b80490000200e000a2
:10120000020035000110a100b1bf9f00ea81570024
:10121000820020008a0078003002be002003be0059
:1012200008007800490007003fb99700f00061000e
:10123000030032000000e90001c3b30081747800ac
:101240003fb99700e8006100030032000000e900a8
:1012500001c2b30081747800480190000201e900e6
:1012600000015100808044003fba97008a01780055
:101270000b007800f90107009b0090000188a30093
:101280000400320098009000810f500001003d00e2
:10129000010078004f05be004f04be000080fa0038
:1012a00000000600ea874700889fbe008a9fbe00b4
:1012b0008e1f7800000478000300780072875700c2
:1012c00084e2260055c72600049fbe00c396220074
:1012d000030f78006c875700004feb00110590005a
:1012e000a1049000910578000200e00002003200a5
:1012f0000207780001003700728757000000e00005
:1013000002003a000e00780040ff07000a00e000eb
:10131000030035008a0f5000010036000a007800f3
:101320000b02780089017800000178008e007800b7
:1013300008007800c90107004f0778004f05be007c
:101340004f04be00af00b10000000600f487470064
:10135000889fbe008a9fbe008c9fbe008e1f7800b3
:101360000605be000404be0081bf9f0082b79f0037
:10137000f3b79f00b0009000e1b79f001301780021
:1013800092b79f0090069000400090000000e90096
:10139000000678000d00e00001003d001d00200067
:1013a0008040eb00efb19700817178001e002000b3
:1013b0001f0037000c06e9000fb09700cf80de0059
:1013c0006109b900a0b79f00b1b79f00c2b79f00e5
:1013d000d3b79f000203be000002be000800be009b
:1013e0000a01be00a8040700000778000e4078003c
:1013f0000043b000efb0970080707e008d06e900da
:101400000fb997000201e90082bf9f002fb2970039
:10141000bfb297004fb39700dfb397000800be003c
:101420000a01be00910407000205be000004be00d0
:101430000c00e0000d003400e00f5400e08f5c0071
:10144000e00f5d00e08f5d00daff3a000d00e00084
:10145000d8ff3c008fb997000300e0000300340080
:101460001fb097000018a300d2ff3a000e00e00062
:1014700002003a00ffb097001140a1000c00780074
:101480004f0778004f06be004f05be004f04be0058
:101490004f01b100000006000200fa00889fbe0064
:1014a0008a9fbe00000578000104780002007800e1
:1014b00018019000a804900098007800b1bf9f0028
:1014c000b80590000200e000020035000110a10004
:1014d000b1bf9f00ea815700a20020008900780078
:1014e0003002be002003be000800780097ff07000e
:1014f000480190000201e900000151008080450090
:101500003fba9700890178000a007800530107006c
:101510009a0090000188a300040032009800900017
:10152000810f500001003d00010078004f05be0012
:101530004f04be000080fa0000000600fa87470052
:10154000889fbe008a9fbe008c9fbe008e1f7800c1
:10155000800478000104780082057800180190006a
:101560002805900018077800b80090000200e000fd
:10157000020035000e10a10001003700120020000b
:1015800070006700e0b79f00090032003b02be0018
:101590002b03be00e00f5200e08f5a00e00f5b000b
:1015a000e08f5b00020032008a86e900010037000c
:1015b0008a067800e8026700f5b79f000100320054
:1015c0008d06e9003b02be002b03be00e4af9f0086
:1015d000f5af9f0086b79f0097b79f004806900021
:1015e0000c06e9000040eb0080707e00efb297002f
:1015f0007fb297008903780081047800d8af9f00fc
:10160000020478008bbf9f008a05780003457800ac
:101610002a0037000c06e9006fab97006f006300eb
:10162000e90f500002003c000003b0000100370049
:101630007005b0000a03fb001604b100f90f530057
:101640000c003e00000378000650a0001606b10012
:10165000f90f530007003e00b4b79f00a5b79f00e5
:10166000c7b79f0013030700cfb39700afb297002f
:101670003fb2970080747e000804e9008d06e900ff
:101680006fa89700ffa897000fb197009fb1970030
:10169000460020008301d1000281d3008180d30065
:1016a0000080d3000603e900faff3a00e0af9f0094
:1016b000f1af9f0082b79f0093b79f00e10f5600e4
:1016c0000f0034006fa89700ffa897000fb1970094
:1016d0009fb19700e00f5000e08f5800e00f5900d5
:1016e000e08f5900cbff3a000800e000c9ff3c0042
:1016f0000d00e000020034000e18a300c5ff3a0000
:1017000089007800f4b79f00870478005fac9700e9
:101710008a4178000b0578008fbd97000500e00036
:10172000100032003b02be002b03be00e4af9f005e
:10173000f5af9f0086b79f0097b79f00e00f52005c
:10174000e08f5a00e00f5b00e08f5b000500320085
:101750000c06e90083707e000c06e90000c3b300ac
:1017600080707e00ffb297000500e00003003200a9
:101770000c06e90000c2b30080707e0048019000b2
:101780000201e9000c0151008c8040000e0278003b
:101790008a01780009007800b000070099009000e5
:1017a0000188a3000400320098009000810f5000cf
:1017b00001003d00010078004f0778004f06be0091
:1017c0004f05be004f04be00af01b100000006008f
:1017d0008201780001017800f1ff2700bc02370088
:1017e00084082000848f50001d0032000d003c0052
:1017f00014082000848f50002700320002003c00b3
:10180000040820000400370024082000848f5000c2
:101810003400320044082000848f500043003a0016
:1018200036003700040a2000848f50002700320061
:1018300004003c0004092000848f50003b003a0063
:1018400028003700020c2000828f50002f00320049
:10185000020f2000828f500034003a002b00370026
:101860009380e9000200e000050032008109780061
:101870001102fb00cfa2de00612bb9002800370067
:1018800081097800114278000482fb008002eb009d
:101890006033b8002200370013027800e4005200e1
:1018a0000200e00005003200810978001102be004c
:1018b0004fabde00860378001900370081097800fd
:1018c0001102be006033b800150037009380e900b4
:1018d0008109780011027800cfa2de00612bb900e7
:1018e0000f00370093027800e880520081097800e9
:1018f0003102be002103be00090037009380e900d9
:101900000200e00002003200f1ff37009380e9009e
:1019100081097800110278008002eb006033b80082
:101920000498be000690be001000050000000500ef
:1019300044082000848f50002500320008003c003d
:1019400014082000848f5000140032002408200066
:10195000848f500024003200040820000c0037005f
:1019600004092000848f50001f00320004003c0056
:1019700084082000848f500024003a000e003700b5
:10198000040a2000848f500011003200040c200053
:10199000848f50001d003a000d0037009380e9004d
:1019a000810978009100780001087800cf91de006d
:1019b0008288be00140037009380e9008109780016
:1019c0009100780001087800824878000e00370006
:1019d0009380e9008109780091007800010878007f
:1019e00082087800080037009380e90081097800b8
:1019f00091007800010878006112b900612bb900ec
:101a00008498be008690be0010000500000005000e
:101a1000889fbe000004780048009000820478008f
:101a2000808f54000100360080047800090178009e
:101a3000580090000afd070058009000090040007f
:101a400050049800c8009000898450004904980010
:101a50000048eb004f04be0000000600f28747007c
:101a6000889fbe008a9fbe008c9fbe008e1f78009c
:101a7000800478000105780002047800830578006e
:101a80006107620002003a008b0f54000800390021
:101a9000080178008a00780009007800dcff070060
:101aa0008b0f540002003900880578001e003700b3
:101ab000088655000c017800f00f56000100360032
:101ac00002012000010220007e805700ebfc07008d
:101ad0008c0678000500370002012000fe805700c8
:101ae00009007800caff0700f0865600ef8f560005
:101af000f9ff3e004461de0000ff2f000091b900b5
:101b000002014600fe80570009007800c0ff070070
:101b10000e00e00004003a00080178008a00780016
:101b200009007800baff07000b0078004f07780023
:101b30004f06be004f05be004f04be002f01b1008e
:101b40000000060000000500000005000000050080
:101b5000000178000040eb008080fb0081804000a5
:101b600083a3200063c278000404e00003003a006d
:101b700090a3200060c07800000006009201780069
:101b8000934f520004003a0090a3200060c07800f8
:101b90000309e800010037000040e800ea4f500068
:101ba000edff360000000600f6874700889fbe0064
:101bb0008a9fbe008c9fbe008e1f780000057800b3
:101bc0000104780083057800040678000000eb002b
:101bd000c0b79f008080eb00d1b79f00e0b79f00a7
:101be000f2b79f000008200080bf9f009800780097
:101bf000010078008004eb00010037008904e80050
:101c0000304178000204e0000300320053c2b30008
:101c1000834f5100f9ff3a000900e0000400320050
:101c2000090178000a00780079ff0700188c440049
:101c30001807780050c2b3009e4f10003f013a00d1
:101c40000e07e8000e0c780010003700cfb09700a8
:101c50000100a0000b003700cfb097000110a000da
:101c600008003700cfb097000120a0000500370022
:101c7000cfb097000130a00002003700cfb097002e
:101c80000140a000c1b79f00000ce80018007800d8
:101c900090407800b2c2b30082cf5000f1ff320012
:101ca00007003c0002c2b30082cf5000f0ff3200b8
:101cb00032c2b30082cf500007003a00efff370076
:101cc000d2c2b30082cf5000e0ff320002c3b300a3
:101cd00082cf5000e0ff3200a2c2b30082cf50009a
:101ce0000d003a00000ce8001c80e900000e7800ae
:101cf00010007800e0b79f000000e0000f003d00fa
:101d0000cfb097000100a200c1b79f000000ea0019
:101d1000e0b79f000900370039010700e0b79f00d6
:101d200001003700000ce800180078009000fb006c
:101d30000103b100e98f5000faff36004fb0970061
:101d40000008a300020032000010a100c0b79f00ed
:101d500018007800e1c2b30090cf100016003a00de
:101d60008000eb00d1b79f000000e800000c780075
:101d7000a1c2b30090cf100006003a00000ce800aa
:101d80001c80e900000e780010007800d0b79f009a
:101d9000090037001a010700d0b79f000100370083
:101da000000ce800180078009000fb000103b1006f
:101db000e98f5000faff36000800780064ff070042
:101dc00080467800180078001000fb003201070000
:101dd00091062000810f50003800320012003c00b4
:101de00041062000810f5000340032000a003c0000
:101df00011062000810f5000200032003106200023
:101e0000810f5000a000320051022000810f5000cd
:101e1000bc003a00b400370071062000810f50006a
:101e2000b8003c008800370001072000810f5000f7
:101e30005c00320007003c00e1062000810f5000ea
:101e40007a003200f1062000810f5000ad003a0008
:101e50003900370051072000810f50002700320061
:101e600081072000810f500042003200310720001e
:101e7000810f5000a3003a008f0037008d80fb00d7
:101e80000c01780000fe2f000f0040003501070014
:101e90000000e000a800320018007800000ce80004
:101ea0009041780002fe2f000f014100f88057009a
:101eb0000a00780024ff07000e0037008d80fb0029
:101ec0008c0178001200200000fe2f000f0040005f
:101ed00043fe07000000e00097003200180ce80005
:101ee00002fe2f000f014100f88057000a00780021
:101ef0005efc070080844400900037008d80fb006a
:101f00008c0178000001eb0000fe2f000f00400064
:101f100033fe07000000e00087003200180ce800e4
:101f200002fe2f000f014100f88057000a007800e0
:101f300059fd0700efff37008d80fb008c01780012
:101f40000001eb0000fe2f000f00400024fe070000
:101f50000000e00078003200180ce80002fe2f00bc
:101f60000f014100f88057000a00780098fc070034
:101f7000e0ff37008d80fb008c0178000001eb0052
:101f800000fe2f000f00400015fe07000000e000db
:101f90006900320018007800000ce80090417800d9
:101fa0001c0037008c0178000001eb00010f2000bd
:101fb00000fe2f000f00400009fe07000000e000b7
:101fc0005d003200180ce8000fb097009fb097003a
:101fd0002fb19700bfb19700e00f5000e08f58007d
:101fe000e00f5900e08f590009003a00cfb5970083
:101ff0006fb4970000a3200004fc07000b027800d8
:10200000880178000001780001a320004700370014
:1020100083c7b30002fe2f000f014100f880570074
:102020000a00780045fd0700b2ff37000b8144002d
:102030008d80fb008c01780000fe2f000f00400017
:102040003bfe07003c0037008d80fb000c01780050
:1020500000fe2f000f004000c20007000000e0005b
:102060003500320018007800000ce800904178003c
:1020700002fe2f000f014100f88057000a0078008f
:10208000b1fe07009bff370000c8b30080cf5600a9
:1020900029003a00180ce8001c80e900000e7800c6
:1020a00010407800e0df9f0013002000e2fd2f00c9
:1020b0000f0141000800370000c8b30080cf560070
:1020c0001d003a00180ce8001c80e900000e7800a2
:1020d0008001eb0010017800f88057000a007800ba
:1020e00070fc070083ff370000c8b30080cf5600a4
:1020f00011003a00180ce8004fb29700efb19700ba
:10210000080037000e0c78000000eb00c0b79f00fd
:10211000e0b79f000080eb00d0b79f000002eb000b
:10212000840178001200200061a320000a007800da
:102130004afe07006fff3700180ce800090078001e
:102140004f0778004f06be004f05be004f04be008b
:102150006f01b100000006008200fa00889fbe00f7
:102160008a1f78000005780082047800c13f9f0034
:102170000004eb00100037000902780088017800a5
:10218000a2f72f000f01410081f72f008f80400040
:102190000a00780084fe070008004000880f500005
:1021a00004003d00b0042000f04f88000084eb00e4
:1021b00004003700000478004f3897001004e00056
:1021c000edff3a00080078004f0578004f04be008c
:1021d0000080fa0000000600800078001000200057
:1021e00002022000828f500004003200e98050007b
:1021f000e48f5000010036000000eb0000000600f4
:10220000889fbe008a1f7800000578000a047800c5
:10221000984478000805e8000900fb00eeff07007d
:102220000000e000f9ff3a00b0c2b30080cf5400d4
:1022300005003200d0c2b3008000eb0080cf540014
:1022400005003a00020037008000eb000100370073
:10225000110020000804e8000000eb000300370034
:102260006a02b900020052000003b0003801fb000e
:1022700003fd2f0082814100e98f5100f8ff3600f5
:102280000100e00001003a000000ea004f0578007c
:102290004f04be0000000600f1fb2f0080804000cc
:1022a000f98f500001003e000050a0000000060021
:1022b000f9ff3700f1f92f0080804000f98f5000be
:1022c00001003e00f005b20000000600f9ff3700f3
:1022d000f28747008e1f7800020278000301780021
:1022e0000000e00002003200000778000100370023
:1022f000728757008002eb000100e000010032000d
:102300008102e90070805700060009000018eb0008
:102310000080eb0080bf9f002310200093bf9f0030
:10232000aebf9f00b1bf9f00c5bf9f000100e0008e
:1023300003003d00b1042000f14f88000600370083
:10234000004feb00eebf9f00debf9f0084007800cf
:1023500070805700180007004f0778002f01b10068
:102360000000060003082000838f50001100350094
:1023700013082000838f500006003400330820002b
:10238000838f50000b003a0092017800e8805100e2
:102390000200370092027800e880520001097800bc
:1023a0003102be002103be000498be000690be00ac
:1023b00010000500000005000200fa00881f7800e8
:1023c00000047800e2bf9f00648157000800780095
:1023d00061ff0700980090000148a300010032004f
:1023e0000080eb004f0478000080fa000000060037
:1023f000020ab900001bb9000200b80081004200c7
:102400008100430000000600889fbe008a9fbe0036
:1024100030044200b0844a0030054b0090854b00e8
:102420006000b1000898be000a90be000440e100c0
:1024300005c8e10006d0e10007d8e1000200310044
:10244000680040001008e8004f05be004f04be00c1
:1024500000000600889fbe008a9fbe003004be00b8
:102460002005be000418540005985c0006185d00a5
:1024700007985d00110020000440e10005c8e1005c
:1024800006d0e10007d8e100010039008000eb0030
:10249000108810004f05be004f04be00000006006b
:1024a0001200fa00889fbe008a9fbe008c9fbe006b
:1024b000e0b79f00f1b79f0082bf9f0093bf9f00ce
:1024c0000605be000404be000000eb00d0b79f006c
:1024d000c0b79f00b0b79f00a0b79f0090b79f0004
:1024e000000678005fb19700cfb0970082014100ed
:1024f0003fb097000200e00004003d0037000700f5
:102500007e805700c0ff070003003700330007003c
:102510007e805700cfff0700dfb697000d00e00078
:102520000c0035006fb29700ffb297000fbb970009
:102530009fbb970010002000010020006011b80030
:1025400000027200818272000203730083837300b1
:102550001b0007000c06e80001042000810f560054
:10256000e0ff3a000d00e00004003d000802be005c
:102570000a03be007e805700a3ff07005fa89700f4
:102580000000e00005003a001fb29700afb29700cc
:102590003fb39700cfb39700090007006fb09700d3
:1025a000ffb097000fb997009fb997004f06be0084
:1025b0004f05be004f04be000080fa000000060078
:1025c0000100070000000600a4b79f00b5b79f00f8
:1025d000c6b79f00d7b79f00000006004f09de0076
:1025e00082817100b3b79f004f01de0081804000ff
:1025f00082807000a1b79f008fb097004f09de0066
:10260000000040000200700090b79f007fa8970074
:102610004f01de00818040008280700081b79f0002
:102620000d0007004f3ade0000004000040070007b
:10263000f0af9f00080007000402420085824a00b4
:1026400006034b0087834b00dfff07000802be0034
:102650000a03be00000006002fb29700bfb2970029
:102660004fb39700dfb3970000000600881f780083
:1026700018002000881f780089ff07008f87e90075
:102680004f04780000000600801feb0084ff070065
:102690008f87e90000000600889fbe008a9fbe0069
:1026a000e00f5000e08f5800e00f5900e08f590014
:1026b0000c003d006044b8006055b80000005400b4
:1026c00081805c0002015d0083815d0018002000b4
:1026d0001500070008003d00180007000004eb008b
:1026e000050037000004eb000f00070002003d006a
:1026f0001200070018002000dcff07000800e000bf
:10270000060032006022b8006033b80000005200ba
:1027100081805a0002015b0083815b004f05be008f
:102720004f04be0000000600e00f5200e08f5a0088
:10273000e00f5b00e08f5b00000006006044b80023
:102740006055b8000402540085825c0006035d00f9
:1027500087835d0000000600889fbe008a9fbe0040
:102760008c1f7800e00f5000e08f5800e00f5900f8
:10277000e08f59000d003d006044b8006055b8007e
:102780000000540081805c0002015d0083815d00d7
:102790001c0020000820e10009a8e1000ab0e100c7
:1027a0000bb8e1000d003d00080037000006eb000b
:1027b000e00f5200e08f5a00e00f5b00e08f5b00fb
:1027c00006003d006044b8006055b80004025400a3
:1027d00085825c0006035d0087835d00aaff070019
:1027e0000c00e000060032006022b8006033b80040
:1027f0000000520081805a0002015b0083815b006f
:102800004f0678004f05be004f04be0000000600d2
:020000040000fa
:102810001201000000020000020000000008000099
:10282000d80400000a0000000001000001020000be
:102830000001000009020000430000000201000046
:1028400000c0000032090000040000000001000088
:10285000020200000100000005240000001000003a
:10286000010400002402000002050000240600000c
:102870000001000005240000010000000107000025
:1028800005810000030a00000002000009040000a6
:1028900001000000020a0000000000000007000024
:1028a00005020000024000000000000007050000d3
:1028b000820200004000000000000000040300004d
:1028c000090400000a0300004d0000004f00000052
:1028d00047000000490000002603000055000000ea
:1028e0004d0000004f0000004700000049000000bc
:1028f00032000000200000005300000065000000ce
:102900007200000069000000610000006c0000001f
:1029100020000000700000006f0000007200000046
:10292000740000001a9400005e940000629400009d
:102930006c940000020400000e0100000f11000062
:102940000f000000020400000e1100001f10000024
:102950000e000000020400000c040000040400004b
:102960000e000000020400000e1100001111000012
:102970000e000000020400001111000011130000fd
:102980000d0000000a0000001111000011130000ea
:102990000d000000050a00001111000011130000d5
:1029a0000d000000050a00000e11000011110000ca
:1029b0000e000000754d00004f4700004932000036
:1029c0002053000065720000696100006c00000087
:1029d0006b0d00000a000000256900002569000059
:1029e0003a25000069250000690d00000a0000007a
:0829f0003f0d00000a00000089
:020000040000fa
:1029f8000200fa009ec0a9000080eb007024880045
:102a08000080eb0050248800aa24ef004200200038
:102a18008000eb00c04a200016f9070020002000c3
:102a280030258800a824ef008644a900f00920007a
:102a380080248800f00920006024880082c4a8004f
:102a48008804a80000a020004800de00c0248800f8
:102a58000040eb00004f7800070037001e80fb00a5
:102a6800c200dd0000a02000008140006000b80026
:102a78000089be001e4fe8001e407800eb4f500052
:102a8800f6ff36009424a8009624ef0094a4a90029
:102a98009424a9008000200050248800e09c200095
:102aa8008040eb0001487800409d20008040eb000a
:102ab80001487800a14e8000f00f200000806000df
:102ac800a04e8800b14e800000f02f00008060000a
:102ad800b04e880050248000680060000000e000cc
:102ae800ecff3a0010c0b30013e8b70010c0b30001
:102af80014e8b7001568ef001668ef000d68ef00de
:102b08000040eb00004f7800170037001e80fb00e4
:102b180080004000609c2000008040008000eb00a6
:102b2800010878001e80fb0080004000009c200007
:102b3800008040008000eb00010878009e80fb00c8
:102b4800a09d2000008040008040eb0001487800f4
:102b58009e80fb00e09d2000008040008040eb004c
:102b6800014878001e4fe8001e407800e24f5000f0
:102b7800e6ff360080a02000304e8800d0002000fc
:102b880050258800109e20001050880000a02000ca
:102b980081c0b3000148780010a0200041c0b300f4
:102ba8000148780010a0200010407800804078008c
:102bb8000174a00010a02000014878000268ef000e
:102bc8001828ef001a28ef001c68ef000028ef0013
:102bd8000080fa00000006000200fa0000408000b1
:102be800e10f50000b003a00a124800000042000ef
:102bf800008060000000e00006003a000080eb0062
:102c0800502488008c04a8008c84a8002000200090
:102c18000040880000248000700060000000e00090
:102c28000700320010248000700060000000e000ff
:102c3800030032000001200000248800b9040700c6
:102c480040248000620060000000e00002003200c2
:102c58008ec0a900a10037005024800061006000e8
:102c68000000e0000a00320060248000610060007b
:102c78000000e000060032005dff07009ec0a800cb
:102c880040002000004088001000200050248800e8
:102c980050248000700060000000e0000500320051
:102ca80060248000700060000000e0000100320035
:102cb8008f040700012480000004200000806000c9
:102cc8000000e00003003200000420000024880017
:102cd800ef06070050248000640060000000e00058
:102ce8001400320060248000640060000000e000ee
:102cf80004003200120020008000eb0030072000a2
:102d0800100d0700400020005024880011c8bf00a3
:102d18000004e0000300320011c8bf000040e900d1
:102d280011e8b70011c8bf000004e00001003a0034
:102d38009f010700512480000008200000806000e7
:102d48000000e00006003200612480000008200036
:102d5800008060000000e000010032004804070025
:102d680050248000620060000000e0000c00320087
:102d780060248000620060000000e000080032006b
:102d8800120020008000eb00f0ff2700ed0c070088
:102d98000080eb0070248800200020005024880068
:102da80000408000e30f500002003e008ec0a900e2
:102db8004a00370060248000680060000000e000de
:102dc800450032000040eb00004f78003d0037001e
:102dd80050248000680060000000e0003d003200e0
:102de80090248000004078000ee8b7000ec8bf00ad
:102df8000080fb004400de00004078000fe8b700c8
:102e080080002000502488000ec8bf006840600081
:102e18000004e00011003a000fc8bf000081fb0069
:102e28008080fb00e09d20000080400090407800fa
:102e380061c060000004a200e1406000e09d200045
:102e480000004100e1c06000104178000204a100c8
:102e58008140710001487800100037000fc8bf009a
:102e68000081fb008080fb00a09d200000804000c6
:102e78009040780061c060000004a200e14060005a
:102e8800a09d200000004100e1c0600010417800d2
:102e98000204a10081407100014878000fc8bf00fa
:102ea8000004e00002003a002a040700040037008a
:102eb8000001eb00e180200020072000a10c0700a2
:102ec8001e4fe8001e407800e34f5000c0ff360058
:102ed80001003700000000008ec0a9000080fa0041
:102ee800000006000400fa002047980031479800c7
:102ef8003e4090000080fb00680060000000e00099
:102f0800030032008040eb002e409000970107003c
:102f18003e4090000080fb00640060000000e0007c
:102f28000300320011c0b3002e4090008f0107004b
:102f3800a14a20002e4090000080fb0000004000c5
:102f4800008f40001e007800be40900001487800c5
:102f58000080fa00000006000800fa0020479800e8
:102f68003147980022079800634798003e40900038
:102f78000004e000070032002e4090000080fb00b3
:102f880080004000609c200000804000100f780006
:102f9800060037002e4090000080fb0080004000b3
:102fa800009c200000804000100f78001e00780070
:102fb8000000e00002003a000000eb003700370094
:102fc800ae0090001e007800110098001e007800e6
:102fd800ee409000014878001e00780010409000f4
:102fe80002c4b300824060001e00780011409800bf
:102ff8001e00780010409000804078000134a00046
:103008001e007800114098001e00780010409000c3
:10301800804078000174a0001e00780011409800dc
:103028003e4090000004e0000e0032002e40900068
:103038000080fb00ae4090008180fb0001814000d1
:10304800619c200081004100910078000120a200cd
:1030580000014000609c2000000041000108780049
:103068000d0037002e4090000080fb00ae4090001d
:103078008180fb0001814000019c2000810041000b
:10308800910078000120a20000014000009c20006f
:1030980000004100010878001e0078000080fa0056
:1030a800000006000400fa00204798003147980005
:1030b8002e4090000004e00017003a0030408000e5
:1030c80081c0b3000148780030408000119e200084
:1030d8001100980030408000c1c0b3001140980032
:1030e8003040800031408000914090000174a00081
:1030f80011409800304e800041c0b3001140980044
:10310800304e8000314e8000914090000174a00044
:10311800114098002e0037002e4090000080fb00e0
:1031280000004000800078003e4090000080fb00d6
:10313800008040004300dd008000780000a02000ef
:10314800008f40001e0078001040900080407800fa
:103158000124a0001e007800114098001e0078008d
:1031680010409000804078000174a0001e00780094
:10317800114098002e4090000080fb0000004000a5
:10318800800078003e4090000080fb0000804000f6
:103198004300dd00e400400000a02000008f400054
:1031a8001e00780010409000804078000124a000a4
:1031b8001e007800114098001e0078001040900012
:1031c800804078000174a0001e007800114098002b
:1031d8000080fa00000006000200fa00004f7800a4
:1031e800a124800000022000008060000000e000b0
:1031f8004d0032001e80fb0080004000609c2000d3
:1032080000804000100378001e80fb008000400012
:10321800609c200000804000100078001002be0072
:1032280000042000010020008403780005027800d3
:1032380080027800810078000580630081006200c8
:1032480081017800000178000200be00008bbe00fa
:103258001e80fb0080004000609c20000080400031
:10326800100278001e80fb0080004000609c200057
:1032780000804000100078001001be00000420000b
:10328800010020000000690081806900008abe00fa
:103298001e80fb009e80fb0001814000619c200095
:1032a80081004100910078000120a2000001400047
:1032b800609c200000004100010878001e80fb008f
:1032c80080004000609c2000008040009000780052
:1032d8001e80fb0000014000609c200000004100af
:1032e80010007800104090000044b2009040980010
:1032f8001e80fb0080004000609c20000080400091
:10330800900078001e80fb0000014000609c2000b7
:1033180000004100100078001041900000c4b30084
:1033280000406900904098000080fa000000060004
:103338000000fa009424ef008c24ef000028ef002e
:103348000080fa00000006000000fa00004080003b
:103358000000e00014003a009424ef008c24ef00f1
:103368002000200030258800a824ef008644a9000a
:10337800f009200080248800f009200060248800db
:1033880082c4a8009ec0a800010037009404a800c9
:10339800a0248000610060000000e000fbff320014
:1033a80010002000004088000080fa00000006009d
:1033b8000000fa0013c8bf000004a2000004e000e7
:1033c8003400320010c0b30013e8b70014c8bf00bf
:1033d8000004a2000004e0002e00320010c0b30078
:1033e80014e8b70009c8bf00e24f50000c003a00cb
:1033f800304e80008040eb0001487800304e80005d
:1034080081c4b30011409800304e8000314e8000d6
:10341800914090000174a000114098001d003700f1
:1034280009c8bf00e14f50001a003a001068ef00c9
:103438002040800081c0b30001487800204080000f
:10344800119e2000110098002040800041c0b30068
:103458001140980020408000214080009140900059
:103468000174a0001140980010c0b30010e8b70024
:103478003040800081c0b3000148780030408000af
:10348800119e2000110098003040800001c8b30050
:10349800114098000080fa00000006000000fa00c1
:1034a8001568ef001668ef0009c8bf00e24f50002a
:1034b8000f003a003040800081c0b3000148780016
:1034c80030408000a19e200011009800304080000c
:1034d80081c4b30011409800304080003140800022
:1034e800914090000174a000114098001d00370021
:1034f800709e20001080fb00819e20009180fb00c0
:10350800c808dd000100700080007800804e80004f
:10351800808f500007003100709e20001080fb0053
:10352800819e20009180fb00c808dd00010070002a
:10353800804e880096000700304e8000a19e200033
:1035480011009800304e800081c4b30011409800eb
:10355800304e8000314e8000914090000174a000f0
:10356800114098000080fa00000006000400fa00ec
:10357800204798003147980000a02000000f7800ed
:103588002e4090000080fb00000040008000780082
:103598003e4090000080fb00008040004300dd00ba
:1035a8001e0f40001e0078009000780001f0a10076
:1035b800010878003e4090000004e00007003a004f
:1035c8002e4090000080fb0080004000009c2000fe
:1035d800008040001e087800060037002e4090004a
:1035e8000080fb0080004000609c200000804000bc
:1035f8001e0878001e0078009000780001e0a10005
:10360800010878009e0078006480400090007800ef
:1036180001e0a000010878000080fa000000060020
:103628000000fa0094a4a900714e80000008200050
:10363800008060000000e00027003a00409d200064
:103648009040780000c8b30000c060000004e000ab
:103658000a00320020c0b30009e8b70016c8bf004e
:103668000004a2000004e000010032008bff070004
:103678001468ef001368ef00430037003040800003
:1036880081c0b3000148780030408000119e2000be
:103698001100980030408000c1c0b300114098006c
:1036a8003040800031408000914090000174a000bb
:1036b80011409800304e800041c0b300114098007e
:1036c800304e8000314e8000914090000174a0007f
:1036d800114098002c003700109e20009040780080
:1036e80000c8b30000c060000004e0000f00320012
:1036f80010c0b30009e8b70015c8bf000004a20055
:103708000004e0000100320064ff07001468ef00c5
:103718001368ef0012c8bf000004a2000004e00014
:103728001900320022ff07001700370020c0b3003d
:1037380009e8b7003040800081c0b3000148780034
:1037480030408000119e2000110098003040800019
:1037580041c0b300114098003040800031408000e3
:10376800914090000174a000114098001468ef0087
:103778001368ef0012c8bf000004a2000004e000b4
:10378800010032000aff07000080fa00000006006e
:103798000200fa0080c0b300004f7800804e80001d
:1037a800e70f50000d003e00804e8000004f78006b
:1037b80008c8bf000004e00003003a0010c0b300ce
:1037c80008e8b7000500370008c8bf00e14f5000ff
:1037d80002003a0020c0b30008e8b700814e80001c
:1037e8001e80fb0000805000804e8800304e800014
:1037f8001e487800a09e200050408800704e80002f
:10380800610060000000e00017003a00090037007e
:1038180051408000604e8000104178008248780056
:103828008100e800514088000000e800604e8800f0
:103838001e4fe9001e4078000004e000f4ff3a0043
:103848000c00370051408000604e80001041780025
:10385800824878008100e800514088000000e800b4
:10386800604e88001e4fe9001e4078000004e0000a
:10387800f4ff3a000080fa00000006000200fa0097
:1038880020408000104f78009e80fb00a04e8000f2
:103898004800de00b34e8000f20f20000281610074
:1038a8004811dd0002007000808f500008003600cb
:1038b800a04e80004800de00b24e8000f10f2000cc
:1038c80081006100c808dd0001007000004f780029
:1038d800a04e80004800de00b24e8000f10f2000ac
:1038e80081006100c808dd000100700080007800d8
:1038f8001e80fb0000805000f10f20008100600056
:10390800c808dd00a34e8000f20f2000028161008c
:1039180082807000a14e8800c800de00f00f2000f1
:1039280000806000b24e800001f02f00810061002d
:1039380001007000b04e88000040eb00104798006e
:103948000c003700904e80009e4090000181fb00e3
:10395800a19e200081004100914078000148780034
:103968000000e800904e88001e4090000040e800eb
:10397800104798001e4090009e4f5000f1ff3900fc
:10398800a04e80004800de00b24e8000f10f2000fb
:1039980081006100c808dd00010070000000e0003f
:1039a8001e0032003040800081c0b300014878001a
:1039b80030408000a19e2000110098002040800027
:1039c8009000780000002400008060000000e00003
:1039d80009003a003040800081c4b30011409800cb
:1039e8003040800031408000914090000174a00078
:1039f80011409800300037003040800081c0b3008b
:103a08001140980030408000314080009140900083
:103a18000174a00011409800270037003040800052
:103a280081c0b3000148780030408000119e20001a
:103a3800110098003040800041c0b3001140980048
:103a48003040800031408000914090000174a00017
:103a580011409800b04e80004800de00c24e800041
:103a6800f10f200081006100c808dd00010070002e
:103a78000000e00008003200b04e80004800de0080
:103a8800c24e8000f10f200081006100c808dd00ef
:103a98000100700000000100a04e80000070a1002d
:103aa800a04e880012c8bf000004a2000004e00075
:103ab800010032003efe07000080fa000000060008
:103ac8000200fa00704e80000070a000704e88005e
:103ad800420020008000eb00c04a2000e5f4070007
:103ae800020320008000eb0000a02000e1f40700a2
:103af8009424a8000040eb00004f78000b0037002a
:103b08009e80fb00a09d2000008040008040eb00cc
:103b1800014878009e80fb00e09d20000080400066
:103b28008040eb00014878001e4fe8001e407800f6
:103b3800e24f5000f2ff3600220020008000eb0028
:103b4800e09b2000cbf407009424a90080a020006b
:103b5800304e880000a020002040880020408000cf
:103b680030408800309e20001040780002e8b700fe
:103b780002c8bf000004e00003003a000001200072
:103b88000040880006003700120020002180200035
:103b9800100020006b090700000220000040880088
:103ba8000080fa00000006000000fa00109e2000c5
:103bb8009040780000c8b30080cf500047003a001a
:103bc800e09c200001ccb30001487800409e200012
:103bd800104078000080fb00e20f5000090032001e
:103be800e30f500023003200e10f500037003a0085
:103bf80080402900604e880020012000804e880007
:103c080036003700309e2000104078000004e000a5
:103c180014003a00309e2000104078000080fb001d
:103c28000000400080007800204929000080400002
:103c380010007800604e8800604e80000080e80028
:103c480090407800009d200001487800604e800078
:103c58006300400090407800109d200001487800e3
:103c68001e003700e09c20008040eb0001487800ef
:103c78001a003700309e200010407800e24f5000b4
:103c88000e003e00309e2000104078000080fb00af
:103c98000000400080007800404929000080400072
:103ca80010007800604e8800604e80001040780058
:103cb8000080fb00804e880008003700e09c200050
:103cc8008040eb000148780004003700e09c2000a9
:103cd8008040eb0001487800000000000080fa00f6
:103ce800000006000200fa00a09e20008040eb00c1
:103cf80001487800b09e20008040eb000148780021
:103d0800109e2000904078007fc060000080fb007b
:103d1800e10f500011003200e20f50001300320092
:103d28000000e00047003a00704e80000070a000dc
:103d3800704e88000cc8bf000004e0003a00320052
:103d4800a09e200010407800804078000114a00058
:103d5800a09e2000014878003a003700704e80008d
:103d68000070a000704e880036003700704e80004a
:103d78000070a000704e8800509e2000104078000f
:103d88006f4060000004e00029003200509e2000cf
:103d98009040780000c8b30000c060000004e00054
:103da80009003a00509e2000904078006fc06000e3
:103db8000080fb0080004000009c20000080400044
:103dc800100f780008003700509e200090407800bf
:103dd8006fc060000080fb0080004000609c2000f5
:103de80000804000100f78001e00780090007800d6
:103df80000002800008060000000e0000e00320093
:103e08001e007800900078000040200000806000cc
:103e18000000e0000a003200a09e200011c0b3009c
:103e2800014878000700370000000000050037004f
:103e38000000000003003700000000000100370008
:103e480000000000714e8000000820000080600023
:103e58000000e00008003200a09e2000604e8800ac
:103e6800704e80000000a000704e8800009d200069
:103e780021c0b300014878000080fa000000060065
:103e88000000fa0050258000620060000000e00099
:103e980013003200204080009040900000c8b3001a
:103ea80080cf50000d003a00304e800090409000c6
:103eb80040c8b30080cf500008003a00204080007e
:103ec800c1c0b3001140980020408000214080000c
:103ed800914090000174a00011409800aa24a90004
:103ee80000082000502488000080fa000000060026
:103ef8000000fa008284a8000001200050248800f5
:103f080010c0b3000de8b7001c68ef000001eb001b
:103f18008000eb00500720008a0807000080fa00a4
:103f2800000006000000fa000d68ef000001eb0039
:103f38008000eb0040072000820807008284a90067
:103f480000012000002488001c68ef000080fa00af
:103f5800000006000000fa00d0c2b30011e8b70064
:103f68000ec8bf000080fb000020a1000000e00098
:103f78001f003a000ec8bf000080fb004200de00b0
:103f8800004078000080fb00c200dd0000a0200097
:103f98000080400020408800204080003040880099
:103fa800304080000020a20030408800204080007f
:103fb8009000780000c0230080806000004023004b
:103fc800808f500008003a002040800010009000c8
:103fd8008200200080007800109e20009ef30700d9
:103fe8000b000700080037003d00070006003700f7
:103ff8000ec8bf000080fb000020a100e80f5000a1
:1040080001003a00530007000080fa000000060093
:104018000000fa000868ef001268ef001568ef006a
:104028001668ef001068ef000968ef00304e800056
:10403800314e8000914090000174a1001140980019
:10404800304e80000020a200304e8800304e8000a4
:10405800314e8000914090000174a10011409800f9
:10406800304e80000020a200304e88003040800092
:1040780031408000914090000174a10011409800e7
:10408800e09c20008040eb00014878000000eb0035
:10409800804e8800409d20008040eb000148780059
:1040a800a14e8000f00f200000806000a04e880024
:1040b800b14e800000f02f0000806000b04e8800f4
:1040c800830007000001eb008000eb0030002000b7
:1040d8001c08070052fd07000080fa0000000600d7
:1040e8000000fa0009c8bf00e24f500002003a0081
:1040f800e2fd0700150037000968ef0010c8bf008f
:104108000004a2000004e0000f00320030408000ec
:1041180081c0b3000148780030408000119e200023
:104128001100980030408000c1c0b30011409800d1
:104138003040800031408000914090000174a00020
:1041480011409800010037001068ef000080fa0065
:10415800000006000200fa00304e800010007800cf
:104168004e00de0061406000004f7800304e800055
:104178000020a200304e880000408000e80f500068
:104188000e003a00309e2000104078008080fb002e
:10419800f007200000806000b0248800b024800070
:1041a8000000e00003003200000120000040880009
:1041b80002003700400020000040880009c8bf0006
:1041c800e14f500025003a00304e8000a19e2000ab
:1041d800110098006efd070008c8bf00e24f5000ac
:1041e80009003a00304e800041c0b30011409800e9
:1041f800304e8000314e8000914090000174a00044
:1042080011409800300037001e4078000004e0009c
:1042180009003a00304e800081c4b3001140980074
:10422800304e8000314e8000914090000174a00013
:104238001140980024003700304e800081c0b30040
:1042480011409800304e8000314e8000914090001f
:104258000174a000114098001b003700409d200009
:104268009040780000c8b30000c060000004e0007f
:1042780014003200b04e80004800de00c24e8000bc
:10428800f10f200081006100c808dd000100700006
:104298000000e00008003200b04e80004800de0058
:1042a800c24e8000f10f200081006100c808dd00c7
:1042b8000100700000000100a04e80000070a10005
:1042c800a04e88000968ef000080fa000000060090
:1042d8000000fa00109e2000104078000046b2004e
:1042e8000004e00051003a00209e200010407800b1
:1042f8000080fb00cf80de00b20020000300200019
:10430800820f5000838f58004a003e000060010071
:10431800210037002200370048003700200037000e
:1043280046003700060037000b0037003a00370018
:104338000d0037000a0037001b0037002a0037003d
:10434800704e80000070a000704e88008000200031
:10435800004088003a00370013fe07003800370095
:10436800d7fd07003600370020802000604e880007
:10437800704e80000000a000704e8800009d200054
:1043880011c0b30001487800704e80000070a00092
:10439800704e88002a00370052fe070028003700b8
:1043a8002900070026003700509e200010407800a2
:1043b8008080fb00e09b200000804000604e880069
:1043c800704e80000000a000704e8800009d200004
:1043d80011c0b30001487800704e80000070a00042
:1043e800704e880016003700704e80000070a000e4
:1043f800704e8800509e2000104078000081fb001d
:10440800309e200090407800e09b20000000410092
:10441800014878000a0037000001eb008000eb003b
:1044280020002000470707000500370000000000b3
:104438000300370000000000010037000000000002
:104448000080fa00000006000600fa00309e2000f6
:1044580010407800e14f500010003a00109e2000f4
:10446800104078007f4060000004e0000b003a0034
:10447800704e80000070a000704e8800209e2000c2
:1044880010407800e34f500003003a0010c0b3001a
:104498000ce8b700010037000c68ef00309e2000e0
:1044a800104078000004e000f7003a00109e200059
:1044b800104078007f406000e24f5000f2003a0060
:1044c800509e2000104078006f4060000004e0001b
:1044d800ed003200509e2000904078006fc06000d0
:1044e8000080fb00e20f5000e7003c000140800024
:1044f80000022000808f5000e3003a00704e8000d8
:104508000070a000704e8800509e200090407800f7
:1045180000c8b30000c060000004e00011003a00c9
:10452800509e2000104178006f4061000080fb0021
:1045380080004000009c200000804000100f7800a0
:10454800509e2000904078006fc060008080fb0083
:10455800e09d20000080400010407800404798000f
:1045680010003700509e2000104178006f40610015
:104578000080fb0080004000609c2000008040001c
:10458800100f7800509e2000904078006fc06000a7
:104598008080fb00a09d2000008040001040780033
:1045a800404798004e409000614060000004e000e1
:1045b80004003a001e0078000020a100000f7800d7
:1045c800030037001e0078000020a000000f7800cc
:1045d800509e20009040780000c8b30000c06000e2
:1045e8000004e0000a003a00509e200010417800c4
:1045f8006f4061000080fb009e00780000014000d1
:10460800009c2000000041000108780009003700e4
:10461800509e2000904078006fc060000080fb0032
:104628009e00780000014000609c200000004100ce
:1046380001087800209e200010407800e34f5000c9
:104648002c003a001e007800900078000000280036
:10465800008060000000e00019003200509e200039
:104668009040780000c8b30000c060000004e0007b
:104678000a003a00509e2000104178006f40610007
:104688008080fb00e09d2000008040009040780082
:104698000114a0000148780009003700509e20004e
:1046a800904078006fc060008080fb00a09d2000d3
:1046b80000804000904078000114a0000148780074
:1046c8001e00780010409000804078000124a0006f
:1046d8001e007800114098001e00780010409000dd
:1046e800804078000174a0001e00780011409800f6
:1046f800650037001e0078000020a200000f780037
:104708001e007800900078000000280000806000fb
:104718000000e000110032001e00780010409000f8
:10472800804078000174a1001e00780011409800b4
:104738001e00780010409000804078000164a000be
:104748001e00780011409800220020009e0078008a
:10475800500020007b060700060037001e00780086
:1047680010409000804078000164a0001e0078008e
:10477800114098001e0078000020a200000f780069
:104788004e409000624060000004e00006003a00dd
:104798001e0078009000780000002800008060006b
:1047a8000000e00024003200509e20009040780075
:1047b80000c8b30000c060000004e0000a003a002e
:1047c800509e2000104178006f4061008080fb00ff
:1047d800e09d200000804000904078000114a10076
:1047e8000148780009003700509e2000904078006a
:1047f8006fc060008080fb00a09d2000008040000a
:10480800904078000114a100014878001e0078004b
:1048180010409000b2c3b300824060001e007800d0
:1048280011409800220020009e00780050002000cf
:1048380044060700060037001e007800104090006c
:10484800b2c3b300824060001e0078001140980097
:10485800a14a2000509e2000104178006f4061005e
:104868000080fb0000004000008040001007980016
:104878001e00900010407800804078000114a100cc
:104888001e009000014878000080fa000000060031
:104898000000fa00c0408000d14080006100400064
:1048a800e0804800c0408800d14088000dc8bf00a3
:1048b8000004a2000004e000080032001cc8bf0089
:1048c8000040e8001ce8b7001cc8bf000004e00076
:1048d80002003a0000c0eb001ce8b7000080fa00b4
:1048e800000006000400fa00c2408000d3408000a7
:1048f800028fbe00c0408000d14080001e01be0073
:10490800800f5100818f5900f7ff3a001e00be004a
:104918000080fa00000006000000fa00109e200047
:10492800104078007f406000e14f500078003a0066
:10493800109e20001040780002c6b300824060003c
:1049480000c2b30080cf500073003a00509e200090
:10495800104078000004e00004003200509e20005f
:1049680010407800e14f50006d003a00209e200072
:10497800104078000080fb0001022000810f5000e9
:104988002000320001022000810f500005003c0089
:104998000000e0000a003200e10f5000130032006e
:1049a8006000370011022000810f500043003200e0
:1049b80021022000810f50004800320059003700c2
:1049c800609b2000604e880080002000804e880098
:1049d800704e80000000a000704e8800704e80006d
:1049e8000070a000704e88004e003700609b2000c9
:1049f800604e8800704e80000070a000704e8800e5
:104a080048003700709e20001080fb00819e200027
:104a18009180fb00c808dd0001007000f10f200044
:104a280001016000519d200091417800e0c16100c2
:104a380002c1710082487800c800de00609d200035
:104a480010417800604161008140710001487800a0
:104a5800409a2000f10f200001016000219d2000f4
:104a680091417800e0c1610002c17100824878007c
:104a7800c800de00309d20001041780060416100d0
:104a88008140710001487800709d200090407800b6
:104a9800e0c0600001487800809d200090407800c8
:104aa800e0c0600001487800409d200090407800f8
:104ab8000174a000014878001a003700409a2000cd
:104ac800604e880070002000804e8800e09c200026
:104ad80011ccb3000148780012003700309e200046
:104ae8001080fb00419e20009180fb00c808dd007b
:104af80001007000004078002ae8b700704e80007e
:104b08000070a000704e880000000000050037000b
:104b1800000000000300370000000000010037001b
:104b2800000000000080fa00000006000000fa0003
:104b380000b0240001002000204d8800314d88007d
:104b4800809a20008040eb0001487800909a20006d
:104b58008040eb0001487800a09a200081c0b30093
:104b6800014878001e68ef0051c1b30010c0b300bf
:104b7800dcf80700d1c1b30020c0b300d9f80700a2
:104b880003c4b300429620008040eb0020c0b3006d
:104b9800f1f80700304188002828ef001f68ef006f
:104ba8000080fa00000006000600fa00000f7800f6
:104bb80011079800220798001e007800e50f5000a2
:104bc80012003a00304180009e009000808f500013
:104bd80006003a0003c4b300429620008040eb0070
:104be80020c0b300dcf80700304188004041800055
:104bf8009e009000808f500002003a001f68ef006e
:104c08002468ef0010c0b300010037000040eb003b
:104c18000080fa00000006000400fa00000f780087
:104c2800214798001e68ef00304180000000e00036
:104c38000600320030418000900078000000280013
:104c4800008060000000e00022003a00304180004f
:104c5800904078002e40900080cf50000300310033
:104c68003041800090407800214798001e68ef008e
:104c78000d0037001ec8bf000080fb001e0040006a
:104c8800e1812000914078000181fb0041962000dd
:104c98008100410091407800014878001ec8bf009b
:104ca8000040e8001ee8b700e1812000914078004c
:104cb8002e40900080cf5000eeff390003c4b300af
:104cc800429620008040eb0020c0b300a2f8070005
:104cd800304188001ec8bf000080fa0000000600ae
:104ce8000400fa00000f7800214798009ec0a90030
:104cf8001fc8bf000004e00009003a009e007800c9
:104d080001418800ae4090004282200001497800ad
:104d180010c0b30025e8b70010c0b3001fe8b70003
:104d28009ec0a8000080fa00000006000600fa00f5
:104d3800200798009ec0a9001fc8bf000004e0001b
:104d4800020032009ec0a8001f0037000040eb00a0
:104d5800004f7800ae009000110798001e4fe80041
:104d68001e407800e14f40000c0032001e00900009
:104d7800104078000080fb000000ea004f00de00d1
:104d8800004078009e0090008100e800110798001c
:104d98000004e000f1ff3a000100370000000000c5
:104da8002e009000004188009e407800428220003a
:104db8000149780010c0b30025e8b70010c0b3005f
:104dc8001fe8b7009ec0a8000080fa000000060097
:104dd8000600fa00200798009ec0a9001fc8bf005f
:104de8000004e000020032009ec0a8001e00370048
:104df8000040eb00004f7800ae00900011079800cb
:104e08001e4fe8001e407800e14f40000c003200c1
:104e18001e009000104078000080fb000000ea00af
:104e28004f00de00004078009e0090008100e800fe
:104e3800110798000004e000f1ff3a000100370074
:104e4800000000002e009000004188009e4078007d
:104e580042822000014978002568ef0010c0b300a5
:104e68001fe8b7009ec0a8000080fa0000000600f6
:104e78000200fa009ec0a900404180000000e00046
:104e880008003200404180009000780000002800af
:104e9800008060000000e000020032009ec0a80010
:104ea800620037001fc8bf00e34f500001003a00fe
:104eb8001f68ef001fc8bf000004e00002003a00ae
:104ec8009ec0a800590037001fc8bf00e24f50001d
:104ed80009003a008041eb000001eb0011c0b3006b
:104ee80020c0b3001cf807004041880030c0b30060
:104ef8001fe8b7004c0037001fc8bf00e14f500043
:104f080049003a00418220009140780000c4b30073
:104f180080cf50000300360000c4b300004f780073
:104f2800030037004182200091407800014f78004b
:104f380024c8bf001e40500024e8b700409220005b
:104f4800104188009e4078001147980025c8bf008e
:104f58000004e0001f003a000d00370010418000f7
:104f6800014180009140780001487800104180009c
:104f78000000e80010418800004180000000e800bf
:104f8800004188001e4090000040e900104798004a
:104f98001e4090000004e000f0ff3a0010003700c7
:104fa800104180000141800091407800014878005c
:104fb800104180000000e800104188000041800096
:104fc8000000e800004188001e4090000040e90011
:104fd800104798001e4090000004e000f0ff3a00df
:104fe80024c8bf000004e00009003a0000c4b30070
:104ff8009e40780080cf500003003a0020c0b300e4
:105008001fe8b7000200370030c0b3001fe8b70040
:105018009e4178004292200011c0b30020c0b30026
:10502800cdf70700404188009ec0a8000080fa0024
:10503800000006000800fa0030079800be00900043
:10504800c003200000017800110009008200d80088
:10505800000f780010002000100798001900370092
:105068009e007800a00020000001780011000900cf
:105078008200d8008000fd00800078006283200054
:105088001e00900000004000000041000108780068
:105098001e007800cf80de0089ed0700a499290062
:1050a800959929009699290097fb230087ed070019
:1050b80057ed0700000f78001e0090000000e9007f
:1050c800100798001e0090000000e000e4ff3d007b
:1050d800be009000c0032000000178001100090004
:1050e8008200d8008000fd003007980030002000c2
:1050f8002007980019003700be009000a00020008b
:1051080000017800110009008200d8008000fd002d
:1051180080007800628320002e009000000040008c
:1051280000004100010878003e009000cf80de00ba
:1051380063ed0700a49929009599290096992900fb
:1051480097fb230061ed070031ed07003007980059
:105158002e0090000000e900200798002e00900023
:10516800e10f5000e4ff3c000080fa000000060058
:105178000000fa008460a9009460a800f0ff2700ee
:10518800100888000021ef0021088000f0fc2f00a3
:1051980000806000200888000421a8000080fa0030
:1051a800000006000000fa0005e1a8000080fa00ef
:1051b800000006000000fa0005e1a9000080fa00de
:1051c800000006000000fa00c1c2a900c1e2a9005f
:1051d800213a8000f0f32f0000806000203a880018
:1051e8000100370000000000113a80000002200092
:1051f800008060000000e000faff320040a7a9002c
:10520800103a8000000178000210a000600420001d
:1052180071052000237420008049780081497800b6
:10522800824978000000eb003a040700f0f5070017
:1052380045f80700f0c2a900f0e2a900f102a900b0
:10524800f122a900d9e2a900e882a900e8a2a900f0
:10525800d022a800d062a800e102a800e122a8009c
:10526800f9020700a1030700a04d29004f0307001a
:10527800bfff07006c000700f0418000e10f5000fd
:1052880032003200e10f500003003900e20f5000f5
:1052980019003200f7ff3700c6ff07003028ef007b
:1052a800804180009702070090168000620060002d
:1052b8000000e0000f003a00001027002100200045
:1052c8000604070001003700000000009016800067
:1052d800620060000000e000fbff320000102700c1
:1052e80021002000fd03070020002000f041880075
:1052f800acff07003b003700901680006800600094
:105308000000e0000e003a000010270021002000f5
:10531800f20307000100370000000000901680002b
:10532800680060000000e000fbff3200001027006a
:1053380021002000e903070010002000f041880048
:10534800804180006f0207002600370099ff0700a0
:1053580090168000680060000000e0000d003a0030
:105368000010270021002000dc030700010037009f
:105378000000000090168000680060000000e00057
:10538800fbff32000010270021002000d303070094
:105398003e28ef0090168000620060000000e000e8
:1053a8000f003a000010270021002000cb0307005f
:1053b80001003700000000009016800062006000c5
:1053c8000000e000fbff3200001027002100200051
:1053d800c203070020002000f041880071ff070089
:1053e80000000000a3ff37000000fa00809a2000a8
:1053f8008040eb0001487800a09a200081c0b300eb
:1054080001487800909a20008040eb00014878001d
:105418000058220001002000204d8800314d8800ee
:105428000080fa00000006000200fa000040800038
:10543800ff0f5000630036004024800062006000c7
